:030000000201B545
:10050000380C010056415253204175746F53797372
:1005100074656D00537769746368696E67204F4E28
:10052000204C49474854202E2E2E0053776974637F
:1005300068696E67204F4646204C494748542E2E26
:100540002E00537769746368696E67204F4E2046AA
:10055000414E2E2E2E2E2E2E2E0053776974636858
:10056000696E67204F46462046414E2E2E2E2E2E77
:100570002E00537769746368696E67204F4E204D73
:100580004F544F522E2E2E00537769746368696E54
:1005900067204F4646204D4F544F522E2E2E00536B
:1005A0007769746368696E67204F4E2041432E2E31
:1005B0002E2E2E2E2E00537769746368696E672085
:1005C0004F46462041432E2E2E2E2E2E004F706574
:1005D0006E696E6720444F4F522E2E2E2E2E2E2ED9
:1005E0002E2E2E00436C6F73696E6720444F4F525E
:1005F0002E2E2E2E2E2E2E2E2E2E0020202020208F
:1006000020202020202020202020202020202020EA
:1006100020200061742B636D67663D310061742B8F
:06062000636D67723D00EE
:10002300A99920B53320D130BA01047A008007B9E9
:100033002C010A020128C29990061DE493B4000E14
:10004300C29989993099FDC299D2D1020128F599B3
:100053003099FDC299A380E3B8060478008007B9FC
:10006300220108020128C2D17DFF7CFF7B23B94115
:1000730010C2A374C03149312B90051431810201A0
:1000830028B96110D2A374C03149312B90052B31AB
:1000930081020128B94210C2A474C03149312B90A6
:1000A30005423181020128B9620FD2A474C03149DB
:1000B300312B90055A3181806CB9430FC2A574C0AE
:1000C3003149312B9005723181805AB9630FD2A522
:1000D30074C03149312B90058831818048B9440F70
:1000E300C2A674C03149312B90059F31818036B946
:1000F300640FD2A674C03149312B9005B63181808B
:1001030024B9450FC2A774C03149312B9005CD31B5
:10011300818012B9650FD2A774C03149312B900584
:10012300E431818000C29832758CFF758A31D28C9C
:10013300308DFDC28CC28D22D297C2A0D2A1C2A2A1
:10014300D2A22097F922F590C2A0C2A1D2A2312B4C
:10015300C2A222F590D2A0C2A1D2A2312BC2A22266
:0A01630075900075A000D2A3D2A48D
:10016D00D2A5D2A6D2A722E4936016313B314931F4
:10017D002BA380F3E4936009313B3156312BA380DF
:10018D00F322758921758DFD75985075A890D28EC5
:10019D00C299900613E493B40003C29922F59930E5
:1001AD0099FDC299A380EE2278007A00C2D1316305
:1001BD0090050031749005043181318F7DFF7CFFF6
:1001CD007B23DBFEDCFADDF674C03149312B900563
:0501DD00FB318180E709
:00000001FF
